{
  "_format": "hh-sol-artifact-1",
  "contractName": "ProxyAdmin",
  "sourceName": "contracts/ProxyAdmin.sol",
  "abi": [
    {
      "inputs": [
        {
          "internalType": "address",
          "name": "initialOwner",
          "type": "address"
        }
      ],
      "stateMutability": "nonpayable",
      "type": "constructor"
    },
    {
      "inputs": [
        {
          "internalType": "address",
          "name": "owner",
          "type": "address"
        }
      ],
      "name": "OwnableInvalidOwner",
      "type": "error"
    },
    {
      "inputs": [
        {
          "internalType": "address",
          "name": "account",
          "type": "address"
        }
      ],
      "name": "OwnableUnauthorizedAccount",
      "type": "error"
    },
    {
      "anonymous": false,
      "inputs": [
        {
          "indexed": true,
          "internalType": "address",
          "name": "previousOwner",
          "type": "address"
        },
        {
          "indexed": true,
          "internalType": "address",
          "name": "newOwner",
          "type": "address"
        }
      ],
      "name": "OwnershipTransferred",
      "type": "event"
    },
    {
      "inputs": [
        {
          "internalType": "contract ITransparentUpgradeableProxy",
          "name": "proxy",
          "type": "address"
        }
      ],
      "name": "admin",
      "outputs": [
        {
          "internalType": "address",
          "name": "",
          "type": "address"
        }
      ],
      "stateMutability": "view",
      "type": "function"
    },
    {
      "inputs": [
        {
          "internalType": "contract ITransparentUpgradeableProxy",
          "name": "proxy",
          "type": "address"
        },
        {
          "internalType": "address",
          "name": "newAdmin",
          "type": "address"
        }
      ],
      "name": "changeAdmin",
      "outputs": [],
      "stateMutability": "nonpayable",
      "type": "function"
    },
    {
      "inputs": [
        {
          "internalType": "contract ITransparentUpgradeableProxy",
          "name": "proxy",
          "type": "address"
        }
      ],
      "name": "implementation",
      "outputs": [
        {
          "internalType": "address",
          "name": "",
          "type": "address"
        }
      ],
      "stateMutability": "view",
      "type": "function"
    },
    {
      "inputs": [],
      "name": "owner",
      "outputs": [
        {
          "internalType": "address",
          "name": "",
          "type": "address"
        }
      ],
      "stateMutability": "view",
      "type": "function"
    },
    {
      "inputs": [],
      "name": "renounceOwnership",
      "outputs": [],
      "stateMutability": "nonpayable",
      "type": "function"
    },
    {
      "inputs": [
        {
          "internalType": "address",
          "name": "newOwner",
          "type": "address"
        }
      ],
      "name": "transferOwnership",
      "outputs": [],
      "stateMutability": "nonpayable",
      "type": "function"
    },
    {
      "inputs": [
        {
          "internalType": "contract ITransparentUpgradeableProxy",
          "name": "proxy",
          "type": "address"
        },
        {
          "internalType": "address",
          "name": "_implementation",
          "type": "address"
        }
      ],
      "name": "upgradeTo",
      "outputs": [],
      "stateMutability": "payable",
      "type": "function"
    },
    {
      "inputs": [
        {
          "internalType": "contract ITransparentUpgradeableProxy",
          "name": "proxy",
          "type": "address"
        },
        {
          "internalType": "address",
          "name": "_implementation",
          "type": "address"
        },
        {
          "internalType": "bytes",
          "name": "data",
          "type": "bytes"
        }
      ],
      "name": "upgradeToAndCall",
      "outputs": [],
      "stateMutability": "payable",
      "type": "function"
    }
  ],
  "bytecode": "0x60806040523480156200001157600080fd5b5060405162000ce938038062000ce98339818101604052810190620000379190620001f4565b80600073ffffffffffffffffffffffffffffffffffffffff168173ffffffffffffffffffffffffffffffffffffffff1603620000ad5760006040517f1e4fbdf7000000000000000000000000000000000000000000000000000000008152600401620000a4919062000237565b60405180910390fd5b620000be81620000c660201b60201c565b505062000254565b60008060009054906101000a900473ffffffffffffffffffffffffffffffffffffffff169050816000806101000a81548173ffffffffffffffffffffffffffffffffffffffff021916908373ffffffffffffffffffffffffffffffffffffffff1602179055508173ffffffffffffffffffffffffffffffffffffffff168173ffffffffffffffffffffffffffffffffffffffff167f8be0079c531659141344cd1fd0a4f28419497f9722a3daafe3b4186f6b6457e060405160405180910390a35050565b600080fd5b600073ffffffffffffffffffffffffffffffffffffffff82169050919050565b6000620001bc826200018f565b9050919050565b620001ce81620001af565b8114620001da57600080fd5b50565b600081519050620001ee81620001c3565b92915050565b6000602082840312156200020d576200020c6200018a565b5b60006200021d84828501620001dd565b91505092915050565b6200023181620001af565b82525050565b60006020820190506200024e600083018462000226565b92915050565b610a8580620002646000396000f3fe60806040526004361061007b5760003560e01c80636b8807181161004e5780636b8807181461011e578063715018a61461015b5780638da5cb5b14610172578063f2fde38b1461019d5761007b565b8063132d807e1461008057806313b7adcc1461009c5780631acfd02a146100b857806363a846f8146100e1575b600080fd5b61009a600480360381019061009591906106e5565b6101c6565b005b6100b660048036038101906100b1919061086b565b61023d565b005b3480156100c457600080fd5b506100df60048036038101906100da91906106e5565b6102b8565b005b3480156100ed57600080fd5b50610108600480360381019061010391906108da565b61032f565b6040516101159190610916565b60405180910390f35b34801561012a57600080fd5b50610145600480360381019061014091906108da565b6103a7565b6040516101529190610916565b60405180910390f35b34801561016757600080fd5b5061017061041f565b005b34801561017e57600080fd5b50610187610433565b6040516101949190610916565b60405180910390f35b3480156101a957600080fd5b506101c460048036038101906101bf9190610931565b61045c565b005b6101ce6104e2565b8173ffffffffffffffffffffffffffffffffffffffff16633659cfe6826040518263ffffffff1660e01b81526004016102079190610916565b600060405180830381600087803b15801561022157600080fd5b505af1158015610235573d6000803e3d6000fd5b505050505050565b6102456104e2565b8273ffffffffffffffffffffffffffffffffffffffff16634f1ef2863484846040518463ffffffff1660e01b81526004016102819291906109dd565b6000604051808303818588803b15801561029a57600080fd5b505af11580156102ae573d6000803e3d6000fd5b5050505050505050565b6102c06104e2565b8173ffffffffffffffffffffffffffffffffffffffff16638f283970826040518263ffffffff1660e01b81526004016102f99190610916565b600060405180830381600087803b15801561031357600080fd5b505af1158015610327573d6000803e3d6000fd5b505050505050565b60008173ffffffffffffffffffffffffffffffffffffffff1663f851a4406040518163ffffffff1660e01b8152600401602060405180830381865afa15801561037c573d6000803e3d6000fd5b505050506040513d601f19601f820116820180604052508101906103a09190610a22565b9050919050565b60008173ffffffffffffffffffffffffffffffffffffffff16635c60da1b6040518163ffffffff1660e01b8152600401602060405180830381865afa1580156103f4573d6000803e3d6000fd5b505050506040513d601f19601f820116820180604052508101906104189190610a22565b9050919050565b6104276104e2565b6104316000610569565b565b60008060009054906101000a900473ffffffffffffffffffffffffffffffffffffffff16905090565b6104646104e2565b600073ffffffffffffffffffffffffffffffffffffffff168173ffffffffffffffffffffffffffffffffffffffff16036104d65760006040517f1e4fbdf70000000000000000000000000000000000000000000000000000000081526004016104cd9190610916565b60405180910390fd5b6104df81610569565b50565b6104ea61062d565b73ffffffffffffffffffffffffffffffffffffffff16610508610433565b73ffffffffffffffffffffffffffffffffffffffff16146105675761052b61062d565b6040517f118cdaa700000000000000000000000000000000000000000000000000000000815260040161055e9190610916565b60405180910390fd5b565b60008060009054906101000a900473ffffffffffffffffffffffffffffffffffffffff169050816000806101000a81548173ffffffffffffffffffffffffffffffffffffffff021916908373ffffffffffffffffffffffffffffffffffffffff1602179055508173ffffffffffffffffffffffffffffffffffffffff168173ffffffffffffffffffffffffffffffffffffffff167f8be0079c531659141344cd1fd0a4f28419497f9722a3daafe3b4186f6b6457e060405160405180910390a35050565b600033905090565b6000604051905090565b600080fd5b600080fd5b600073ffffffffffffffffffffffffffffffffffffffff82169050919050565b600061067482610649565b9050919050565b600061068682610669565b9050919050565b6106968161067b565b81146106a157600080fd5b50565b6000813590506106b38161068d565b92915050565b6106c281610669565b81146106cd57600080fd5b50565b6000813590506106df816106b9565b92915050565b600080604083850312156106fc576106fb61063f565b5b600061070a858286016106a4565b925050602061071b858286016106d0565b9150509250929050565b600080fd5b600080fd5b6000601f19601f8301169050919050565b7f4e487b7100000000000000000000000000000000000000000000000000000000600052604160045260246000fd5b6107788261072f565b810181811067ffffffffffffffff8211171561079757610796610740565b5b80604052505050565b60006107aa610635565b90506107b6828261076f565b919050565b600067ffffffffffffffff8211156107d6576107d5610740565b5b6107df8261072f565b9050602081019050919050565b82818337600083830152505050565b600061080e610809846107bb565b6107a0565b90508281526020810184848401111561082a5761082961072a565b5b6108358482856107ec565b509392505050565b600082601f83011261085257610851610725565b5b81356108628482602086016107fb565b91505092915050565b6000806000606084860312156108845761088361063f565b5b6000610892868287016106a4565b93505060206108a3868287016106d0565b925050604084013567ffffffffffffffff8111156108c4576108c3610644565b5b6108d08682870161083d565b9150509250925092565b6000602082840312156108f0576108ef61063f565b5b60006108fe848285016106a4565b91505092915050565b61091081610669565b82525050565b600060208201905061092b6000830184610907565b92915050565b6000602082840312156109475761094661063f565b5b6000610955848285016106d0565b91505092915050565b600081519050919050565b600082825260208201905092915050565b60005b8381101561099857808201518184015260208101905061097d565b60008484015250505050565b60006109af8261095e565b6109b98185610969565b93506109c981856020860161097a565b6109d28161072f565b840191505092915050565b60006040820190506109f26000830185610907565b8181036020830152610a0481846109a4565b90509392505050565b600081519050610a1c816106b9565b92915050565b600060208284031215610a3857610a3761063f565b5b6000610a4684828501610a0d565b9150509291505056fea2646970667358221220699d8ca17f2f14112a0b59df073c4e7a6249fe93a0cec925973a93890adef20264736f6c63430008140033",
  "linkReferences": {},
  "deployedLinkReferences": {}
}