{
  "_format": "hh-sol-artifact-1",
  "contractName": "SWTRImplementation",
  "sourceName": "contracts/SWTRImplementation.sol",
  "abi": [
    {
      "inputs": [],
      "name": "InvalidInitialization",
      "type": "error"
    },
    {
      "inputs": [],
      "name": "NotInitializing",
      "type": "error"
    },
    {
      "inputs": [
        {
          "internalType": "address",
          "name": "owner",
          "type": "address"
        }
      ],
      "name": "OwnableInvalidOwner",
      "type": "error"
    },
    {
      "inputs": [
        {
          "internalType": "address",
          "name": "account",
          "type": "address"
        }
      ],
      "name": "OwnableUnauthorizedAccount",
      "type": "error"
    },
    {
      "anonymous": false,
      "inputs": [
        {
          "indexed": false,
          "internalType": "uint64",
          "name": "version",
          "type": "uint64"
        }
      ],
      "name": "Initialized",
      "type": "event"
    },
    {
      "anonymous": false,
      "inputs": [
        {
          "indexed": true,
          "internalType": "address",
          "name": "previousOwner",
          "type": "address"
        },
        {
          "indexed": true,
          "internalType": "address",
          "name": "newOwner",
          "type": "address"
        }
      ],
      "name": "OwnershipTransferred",
      "type": "event"
    },
    {
      "inputs": [
        {
          "internalType": "string[]",
          "name": "name",
          "type": "string[]"
        },
        {
          "internalType": "uint32[]",
          "name": "version",
          "type": "uint32[]"
        },
        {
          "internalType": "address[]",
          "name": "issuerAddress",
          "type": "address[]"
        }
      ],
      "name": "addIssuersRecord",
      "outputs": [],
      "stateMutability": "nonpayable",
      "type": "function"
    },
    {
      "inputs": [
        {
          "internalType": "bytes",
          "name": "originalData",
          "type": "bytes"
        }
      ],
      "name": "decodeQuadrataPassportV1OriginalData",
      "outputs": [
        {
          "internalType": "uint8",
          "name": "aml",
          "type": "uint8"
        },
        {
          "internalType": "string",
          "name": "country",
          "type": "string"
        },
        {
          "internalType": "string",
          "name": "did",
          "type": "string"
        },
        {
          "internalType": "bool",
          "name": "isBusiness",
          "type": "bool"
        },
        {
          "internalType": "bool",
          "name": "investorStatus",
          "type": "bool"
        }
      ],
      "stateMutability": "pure",
      "type": "function"
    },
    {
      "inputs": [
        {
          "internalType": "bytes",
          "name": "originalData",
          "type": "bytes"
        }
      ],
      "name": "decodeWorldcoinV1OriginalData",
      "outputs": [
        {
          "internalType": "string",
          "name": "merkle_root",
          "type": "string"
        },
        {
          "internalType": "string",
          "name": "nullifier_hash",
          "type": "string"
        },
        {
          "internalType": "string",
          "name": "proof",
          "type": "string"
        },
        {
          "internalType": "string",
          "name": "verification_level",
          "type": "string"
        }
      ],
      "stateMutability": "pure",
      "type": "function"
    },
    {
      "inputs": [
        {
          "internalType": "string",
          "name": "name",
          "type": "string"
        },
        {
          "internalType": "uint32[]",
          "name": "version",
          "type": "uint32[]"
        }
      ],
      "name": "getIssuerAddressesByNameAndVersions",
      "outputs": [
        {
          "internalType": "address[]",
          "name": "",
          "type": "address[]"
        }
      ],
      "stateMutability": "view",
      "type": "function"
    },
    {
      "inputs": [
        {
          "internalType": "address",
          "name": "issuerAddress",
          "type": "address"
        }
      ],
      "name": "getIssuerRecordByAddress",
      "outputs": [
        {
          "components": [
            {
              "internalType": "string",
              "name": "name",
              "type": "string"
            },
            {
              "internalType": "uint32",
              "name": "version",
              "type": "uint32"
            },
            {
              "internalType": "address",
              "name": "issuerAddress",
              "type": "address"
            }
          ],
          "internalType": "struct ISWTRProxy.Issuer",
          "name": "",
          "type": "tuple"
        }
      ],
      "stateMutability": "view",
      "type": "function"
    },
    {
      "inputs": [
        {
          "internalType": "address",
          "name": "userAddress",
          "type": "address"
        },
        {
          "internalType": "address",
          "name": "issuerAddress",
          "type": "address"
        },
        {
          "internalType": "enum ISWTRProxy.VerificationType",
          "name": "verificationType",
          "type": "uint8"
        }
      ],
      "name": "getVerificationCountry",
      "outputs": [
        {
          "internalType": "string",
          "name": "",
          "type": "string"
        }
      ],
      "stateMutability": "view",
      "type": "function"
    },
    {
      "inputs": [
        {
          "internalType": "address",
          "name": "userAddress",
          "type": "address"
        },
        {
          "internalType": "address",
          "name": "issuerAddress",
          "type": "address"
        },
        {
          "internalType": "bytes",
          "name": "verificationId",
          "type": "bytes"
        }
      ],
      "name": "getVerificationDataById",
      "outputs": [
        {
          "components": [
            {
              "internalType": "uint32",
              "name": "verificationType",
              "type": "uint32"
            },
            {
              "internalType": "bytes",
              "name": "verificationId",
              "type": "bytes"
            },
            {
              "internalType": "address",
              "name": "issuerAddress",
              "type": "address"
            },
            {
              "internalType": "string",
              "name": "originChain",
              "type": "string"
            },
            {
              "internalType": "uint32",
              "name": "issuanceTimestamp",
              "type": "uint32"
            },
            {
              "internalType": "uint32",
              "name": "expirationTimestamp",
              "type": "uint32"
            },
            {
              "internalType": "bytes",
              "name": "originalData",
              "type": "bytes"
            },
            {
              "internalType": "string",
              "name": "schema",
              "type": "string"
            },
            {
              "internalType": "string",
              "name": "issuerVerificationId",
              "type": "string"
            },
            {
              "internalType": "uint32",
              "name": "version",
              "type": "uint32"
            }
          ],
          "internalType": "struct ISWTRProxy.VerificationData",
          "name": "",
          "type": "tuple"
        }
      ],
      "stateMutability": "view",
      "type": "function"
    },
    {
      "inputs": [
        {
          "internalType": "address",
          "name": "_initialOwner",
          "type": "address"
        }
      ],
      "name": "initialize",
      "outputs": [],
      "stateMutability": "nonpayable",
      "type": "function"
    },
    {
      "inputs": [
        {
          "internalType": "address",
          "name": "userAddress",
          "type": "address"
        },
        {
          "internalType": "address",
          "name": "issuerAddress",
          "type": "address"
        }
      ],
      "name": "isUserHuman",
      "outputs": [
        {
          "internalType": "bool",
          "name": "",
          "type": "bool"
        }
      ],
      "stateMutability": "view",
      "type": "function"
    },
    {
      "inputs": [
        {
          "internalType": "address",
          "name": "userAddress",
          "type": "address"
        },
        {
          "internalType": "enum ISWTRProxy.VerificationType",
          "name": "verificationType",
          "type": "uint8"
        }
      ],
      "name": "isUserVerified",
      "outputs": [
        {
          "internalType": "bool",
          "name": "",
          "type": "bool"
        }
      ],
      "stateMutability": "view",
      "type": "function"
    },
    {
      "inputs": [
        {
          "internalType": "address",
          "name": "userAddress",
          "type": "address"
        },
        {
          "internalType": "enum ISWTRProxy.VerificationType",
          "name": "verificationType",
          "type": "uint8"
        },
        {
          "internalType": "address[]",
          "name": "allowedIssuers",
          "type": "address[]"
        }
      ],
      "name": "isUserVerifiedBy",
      "outputs": [
        {
          "internalType": "bool",
          "name": "",
          "type": "bool"
        }
      ],
      "stateMutability": "view",
      "type": "function"
    },
    {
      "inputs": [
        {
          "internalType": "string",
          "name": "name",
          "type": "string"
        },
        {
          "internalType": "uint32",
          "name": "version",
          "type": "uint32"
        }
      ],
      "name": "issuerAddressByNameAndVersion",
      "outputs": [
        {
          "internalType": "address",
          "name": "",
          "type": "address"
        }
      ],
      "stateMutability": "view",
      "type": "function"
    },
    {
      "inputs": [
        {
          "internalType": "address",
          "name": "",
          "type": "address"
        }
      ],
      "name": "issuerByAddress",
      "outputs": [
        {
          "internalType": "string",
          "name": "name",
          "type": "string"
        },
        {
          "internalType": "uint32",
          "name": "version",
          "type": "uint32"
        },
        {
          "internalType": "address",
          "name": "issuerAddress",
          "type": "address"
        }
      ],
      "stateMutability": "view",
      "type": "function"
    },
    {
      "inputs": [],
      "name": "issuerRecordCount",
      "outputs": [
        {
          "internalType": "uint256",
          "name": "",
          "type": "uint256"
        }
      ],
      "stateMutability": "view",
      "type": "function"
    },
    {
      "inputs": [
        {
          "internalType": "uint256",
          "name": "",
          "type": "uint256"
        }
      ],
      "name": "issuers",
      "outputs": [
        {
          "internalType": "string",
          "name": "name",
          "type": "string"
        },
        {
          "internalType": "uint32",
          "name": "version",
          "type": "uint32"
        },
        {
          "internalType": "address",
          "name": "issuerAddress",
          "type": "address"
        }
      ],
      "stateMutability": "view",
      "type": "function"
    },
    {
      "inputs": [
        {
          "internalType": "uint256",
          "name": "start",
          "type": "uint256"
        },
        {
          "internalType": "uint256",
          "name": "end",
          "type": "uint256"
        }
      ],
      "name": "listIssuersRecord",
      "outputs": [
        {
          "components": [
            {
              "internalType": "string",
              "name": "name",
              "type": "string"
            },
            {
              "internalType": "uint32",
              "name": "version",
              "type": "uint32"
            },
            {
              "internalType": "address",
              "name": "issuerAddress",
              "type": "address"
            }
          ],
          "internalType": "struct ISWTRProxy.Issuer[]",
          "name": "",
          "type": "tuple[]"
        }
      ],
      "stateMutability": "view",
      "type": "function"
    },
    {
      "inputs": [
        {
          "internalType": "address",
          "name": "userAddress",
          "type": "address"
        },
        {
          "internalType": "address",
          "name": "issuerAddress",
          "type": "address"
        }
      ],
      "name": "listVerificationData",
      "outputs": [
        {
          "components": [
            {
              "internalType": "uint32",
              "name": "verificationType",
              "type": "uint32"
            },
            {
              "internalType": "bytes",
              "name": "verificationId",
              "type": "bytes"
            },
            {
              "internalType": "address",
              "name": "issuerAddress",
              "type": "address"
            },
            {
              "internalType": "string",
              "name": "originChain",
              "type": "string"
            },
            {
              "internalType": "uint32",
              "name": "issuanceTimestamp",
              "type": "uint32"
            },
            {
              "internalType": "uint32",
              "name": "expirationTimestamp",
              "type": "uint32"
            },
            {
              "internalType": "bytes",
              "name": "originalData",
              "type": "bytes"
            },
            {
              "internalType": "string",
              "name": "schema",
              "type": "string"
            },
            {
              "internalType": "string",
              "name": "issuerVerificationId",
              "type": "string"
            },
            {
              "internalType": "uint32",
              "name": "version",
              "type": "uint32"
            }
          ],
          "internalType": "struct ISWTRProxy.VerificationData[]",
          "name": "",
          "type": "tuple[]"
        }
      ],
      "stateMutability": "view",
      "type": "function"
    },
    {
      "inputs": [],
      "name": "owner",
      "outputs": [
        {
          "internalType": "address",
          "name": "",
          "type": "address"
        }
      ],
      "stateMutability": "view",
      "type": "function"
    },
    {
      "inputs": [
        {
          "internalType": "address",
          "name": "userAddress",
          "type": "address"
        },
        {
          "internalType": "address",
          "name": "issuerAddress",
          "type": "address"
        },
        {
          "internalType": "enum ISWTRProxy.VerificationType",
          "name": "verificationType",
          "type": "uint8"
        }
      ],
      "name": "passedVerificationType",
      "outputs": [
        {
          "internalType": "bool",
          "name": "",
          "type": "bool"
        }
      ],
      "stateMutability": "view",
      "type": "function"
    },
    {
      "inputs": [
        {
          "internalType": "string",
          "name": "name",
          "type": "string"
        },
        {
          "internalType": "uint32",
          "name": "version",
          "type": "uint32"
        }
      ],
      "name": "removeIssuerRecord",
      "outputs": [],
      "stateMutability": "nonpayable",
      "type": "function"
    },
    {
      "inputs": [],
      "name": "renounceOwnership",
      "outputs": [],
      "stateMutability": "nonpayable",
      "type": "function"
    },
    {
      "inputs": [
        {
          "internalType": "address",
          "name": "newOwner",
          "type": "address"
        }
      ],
      "name": "transferOwnership",
      "outputs": [],
      "stateMutability": "nonpayable",
      "type": "function"
    },
    {
      "inputs": [
        {
          "internalType": "address",
          "name": "userAddress",
          "type": "address"
        },
        {
          "internalType": "address",
          "name": "issuerAddress",
          "type": "address"
        }
      ],
      "name": "walletPassedAML",
      "outputs": [
        {
          "internalType": "bool",
          "name": "",
          "type": "bool"
        }
      ],
      "stateMutability": "view",
      "type": "function"
    }
  ],
  "bytecode": "0x608060405234801561001057600080fd5b506144cc806100206000396000f3fe608060405234801561001057600080fd5b506004361061014d5760003560e01c80639c1a6e4c116100c3578063e33397641161007c578063e333976414610407578063e4e6d8ff14610437578063f2fde38b14610467578063f8ffb4ba14610483578063f99f9dc5146104b3578063ff24646b146104e35761014d565b80639c1a6e4c14610306578063adeb652214610336578063b73b494114610354578063c4d66de814610384578063c8ecdcbb146103a0578063d3d79ea7146103d45761014d565b8063751d122e11610115578063751d122e1461021e5780637b00f8a01461024e5780637b886e5c146102805780637befae0f1461029c578063887fce08146102cc5780638da5cb5b146102e85761014d565b80635432be361461015257806358383e391461018257806361ec30c4146101b2578063658a8342146101e4578063715018a614610214575b600080fd5b61016c6004803603810190610167919061233c565b610513565b604051610179919061257e565b60405180910390f35b61019c600480360381019061019791906125f1565b610792565b6040516101a9919061268e565b60405180910390f35b6101cc60048036038101906101c791906126b0565b610933565b6040516101db939291906126fb565b60405180910390f35b6101fe60048036038101906101f9919061289a565b610a25565b60405161020b91906128f6565b60405180910390f35b61021c610a7d565b005b610238600480360381019061023391906129d9565b610a91565b6040516102459190612a63565b60405180910390f35b61026860048036038101906102639190612a7e565b610ba7565b604051610277939291906126fb565b60405180910390f35b61029a60048036038101906102959190612c4f565b610c89565b005b6102b660048036038101906102b19190612a7e565b611146565b6040516102c39190612d46565b60405180910390f35b6102e660048036038101906102e1919061289a565b6112ad565b005b6102f06116e5565b6040516102fd91906128f6565b60405180910390f35b610320600480360381019061031b9190612d68565b61171d565b60405161032d9190612fb5565b60405180910390f35b61033e611816565b60405161034b9190612fe6565b60405180910390f35b61036e60048036038101906103699190613001565b611822565b60405161037b9190613128565b60405180910390f35b61039e60048036038101906103999190612a7e565b61195f565b005b6103ba60048036038101906103b591906131eb565b611aee565b6040516103cb959493929190613250565b60405180910390f35b6103ee60048036038101906103e991906131eb565b611b27565b6040516103fe94939291906132b1565b60405180910390f35b610421600480360381019061041c9190612d68565b611b58565b60405161042e9190612a63565b60405180910390f35b610451600480360381019061044c9190613312565b611b6e565b60405161045e9190612a63565b60405180910390f35b610481600480360381019061047c9190612a7e565b611c88565b005b61049d60048036038101906104989190612d68565b611d0e565b6040516104aa9190612a63565b60405180910390f35b6104cd60048036038101906104c89190613352565b611d24565b6040516104da91906134b7565b60405180910390f35b6104fd60048036038101906104f891906125f1565b611e31565b60405161050a9190612a63565b60405180910390f35b6060818310610557576040517f08c379a000000000000000000000000000000000000000000000000000000000815260040161054e90613525565b60405180910390fd5b60008054905082111561059f576040517f08c379a000000000000000000000000000000000000000000000000000000000815260040161059690613525565b60405180910390fd5b600083836105ad9190613574565b67ffffffffffffffff8111156105c6576105c5612743565b5b6040519080825280602002602001820160405280156105ff57816020015b6105ec6121d7565b8152602001906001900390816105e45790505b50905060008490505b838110156107875760008181548110610624576106236135a8565b5b906000526020600020906002020160405180606001604052908160008201805461064d90613606565b80601f016020809104026020016040519081016040528092919081815260200182805461067990613606565b80156106c65780601f1061069b576101008083540402835291602001916106c6565b820191906000526020600020905b8154815290600101906020018083116106a957829003601f168201915b505050505081526020016001820160009054906101000a900463ffffffff1663ffffffff1663ffffffff1681526020016001820160049054906101000a900473ffffffffffffffffffffffffffffffffffffffff1673ffffffffffffffffffffffffffffffffffffffff1673ffffffffffffffffffffffffffffffffffffffff16815250508286836107589190613574565b81518110610769576107686135a8565b5b6020026020010181905250808061077f90613637565b915050610608565b508091505092915050565b606060006107a0858561171d565b905060008151116107e6576040517f08c379a00000000000000000000000000000000000000000000000000000000081526004016107dd906136cb565b60405180910390fd5b60005b81518110156108f057836008811115610805576108046136eb565b5b63ffffffff1682828151811061081e5761081d6135a8565b5b60200260200101516000015163ffffffff16036108dd5761089282828151811061084b5761084a6135a8565b5b602002602001015160e001516040518060400160405280601281526020017f717561647261746150617373706f727456310000000000000000000000000000815250611eff565b156108dc5760008282815181106108ac576108ab6135a8565b5b602002602001015160c001518060200190518101906108cb91906137e2565b50505091505080935050505061092c565b5b80806108e890613637565b9150506107e9565b506040517f08c379a000000000000000000000000000000000000000000000000000000000815260040161092390613907565b60405180910390fd5b9392505050565b6000818154811061094357600080fd5b906000526020600020906002020160009150905080600001805461096690613606565b80601f016020809104026020016040519081016040528092919081815260200182805461099290613606565b80156109df5780601f106109b4576101008083540402835291602001916109df565b820191906000526020600020905b8154815290600101906020018083116109c257829003601f168201915b5050505050908060010160009054906101000a900463ffffffff16908060010160049054906101000a900473ffffffffffffffffffffffffffffffffffffffff16905083565b6003828051602081018201805184825260208301602085012081835280955050505050506020528060005260406000206000915091509054906101000a900473ffffffffffffffffffffffffffffffffffffffff1681565b610a85611f27565b610a8f6000611fae565b565b60008084846008811115610aa857610aa76136eb565b5b600085604051602401610abe949392919061396c565b604051602081830303815290604052634887fcd860e01b6020820180517bffffffffffffffffffffffffffffffffffffffffffffffffffffffff8381831617835250505050905060008061040473ffffffffffffffffffffffffffffffffffffffff1683604051610b2f91906139f4565b600060405180830381855afa9150503d8060008114610b6a576040519150601f19603f3d011682016040523d82523d6000602084013e610b6f565b606091505b50915091508115610b985780806020019051810190610b8e9190613a0b565b9350505050610ba0565b600093505050505b9392505050565b6001602052806000526040600020600091509050806000018054610bca90613606565b80601f0160208091040260200160405190810160405280929190818152602001828054610bf690613606565b8015610c435780601f10610c1857610100808354040283529160200191610c43565b820191906000526020600020905b815481529060010190602001808311610c2657829003601f168201915b5050505050908060010160009054906101000a900463ffffffff16908060010160049054906101000a900473ffffffffffffffffffffffffffffffffffffffff16905083565b610c91611f27565b80518351148015610ca3575081518351145b610ce2576040517f08c379a0000000000000000000000000000000000000000000000000000000008152600401610cd990613a84565b60405180910390fd5b60005b835181101561114057600073ffffffffffffffffffffffffffffffffffffffff1660016000848481518110610d1d57610d1c6135a8565b5b602002602001015173ffffffffffffffffffffffffffffffffffffffff1673ffffffffffffffffffffffffffffffffffffffff16815260200190815260200160002060010160049054906101000a900473ffffffffffffffffffffffffffffffffffffffff1673ffffffffffffffffffffffffffffffffffffffff1614610dd9576040517f08c379a0000000000000000000000000000000000000000000000000000000008152600401610dd090613af0565b60405180910390fd5b60006040518060600160405280868481518110610df957610df86135a8565b5b60200260200101518152602001858481518110610e1957610e186135a8565b5b602002602001015163ffffffff168152602001848481518110610e3f57610e3e6135a8565b5b602002602001015173ffffffffffffffffffffffffffffffffffffffff16815250905060008190806001815401808255809150506001900390600052602060002090600202016000909190919091506000820151816000019081610ea39190613cb2565b5060208201518160010160006101000a81548163ffffffff021916908363ffffffff16021790555060408201518160010160046101000a81548173ffffffffffffffffffffffffffffffffffffffff021916908373ffffffffffffffffffffffffffffffffffffffff16021790555050508060016000858581518110610f2c57610f2b6135a8565b5b602002602001015173ffffffffffffffffffffffffffffffffffffffff1673ffffffffffffffffffffffffffffffffffffffff1681526020019081526020016000206000820151816000019081610f839190613cb2565b5060208201518160010160006101000a81548163ffffffff021916908363ffffffff16021790555060408201518160010160046101000a81548173ffffffffffffffffffffffffffffffffffffffff021916908373ffffffffffffffffffffffffffffffffffffffff16021790555090505060016000805490506110079190613574565b6002600085858151811061101e5761101d6135a8565b5b602002602001015173ffffffffffffffffffffffffffffffffffffffff1673ffffffffffffffffffffffffffffffffffffffff16815260200190815260200160002081905550828281518110611077576110766135a8565b5b60200260200101516003868481518110611094576110936135a8565b5b60200260200101516040516110a99190613dc0565b908152602001604051809103902060008685815181106110cc576110cb6135a8565b5b602002602001015163ffffffff1663ffffffff16815260200190815260200160002060006101000a81548173ffffffffffffffffffffffffffffffffffffffff021916908373ffffffffffffffffffffffffffffffffffffffff16021790555050808061113890613637565b915050610ce5565b50505050565b61114e6121d7565b600160008373ffffffffffffffffffffffffffffffffffffffff1673ffffffffffffffffffffffffffffffffffffffff1681526020019081526020016000206040518060600160405290816000820180546111a890613606565b80601f01602080910402602001604051908101604052809291908181526020018280546111d490613606565b80156112215780601f106111f657610100808354040283529160200191611221565b820191906000526020600020905b81548152906001019060200180831161120457829003601f168201915b505050505081526020016001820160009054906101000a900463ffffffff1663ffffffff1663ffffffff1681526020016001820160049054906101000a900473ffffffffffffffffffffffffffffffffffffffff1673ffffffffffffffffffffffffffffffffffffffff1673ffffffffffffffffffffffffffffffffffffffff16815250509050919050565b6112b5611f27565b60006003836040516112c79190613dc0565b908152602001604051809103902060008363ffffffff1663ffffffff16815260200190815260200160002060009054906101000a900473ffffffffffffffffffffffffffffffffffffffff169050600073ffffffffffffffffffffffffffffffffffffffff16600160008373ffffffffffffffffffffffffffffffffffffffff1673ffffffffffffffffffffffffffffffffffffffff16815260200190815260200160002060010160049054906101000a900473ffffffffffffffffffffffffffffffffffffffff1673ffffffffffffffffffffffffffffffffffffffff16036113e6576040517f08c379a00000000000000000000000000000000000000000000000000000000081526004016113dd90613e23565b60405180910390fd5b6000600260008373ffffffffffffffffffffffffffffffffffffffff1673ffffffffffffffffffffffffffffffffffffffff1681526020019081526020016000205490506000600160008054905061143e9190613574565b8154811061144f5761144e6135a8565b5b906000526020600020906002020160008281548110611471576114706135a8565b5b9060005260206000209060020201600082018160000190816114939190613e59565b506001820160009054906101000a900463ffffffff168160010160006101000a81548163ffffffff021916908363ffffffff1602179055506001820160049054906101000a900473ffffffffffffffffffffffffffffffffffffffff168160010160046101000a81548173ffffffffffffffffffffffffffffffffffffffff021916908373ffffffffffffffffffffffffffffffffffffffff160217905550905050600080548061154757611546613f41565b5b60019003818190600052602060002090600202016000808201600061156c9190612214565b6001820160006101000a81549063ffffffff02191690556001820160046101000a81549073ffffffffffffffffffffffffffffffffffffffff021916905550509055600160008373ffffffffffffffffffffffffffffffffffffffff1673ffffffffffffffffffffffffffffffffffffffff168152602001908152602001600020600080820160006115fe9190612214565b6001820160006101000a81549063ffffffff02191690556001820160046101000a81549073ffffffffffffffffffffffffffffffffffffffff02191690555050600260008373ffffffffffffffffffffffffffffffffffffffff1673ffffffffffffffffffffffffffffffffffffffff168152602001908152602001600020600090556003846040516116919190613dc0565b908152602001604051809103902060008463ffffffff1663ffffffff16815260200190815260200160002060006101000a81549073ffffffffffffffffffffffffffffffffffffffff021916905550505050565b6000806116f0612085565b90508060000160009054906101000a900473ffffffffffffffffffffffffffffffffffffffff1691505090565b606060008383604051602401611734929190613f70565b60405160208183030381529060405263cc8995ec60e01b6020820180517bffffffffffffffffffffffffffffffffffffffffffffffffffffffff8381831617835250505050905060008061040473ffffffffffffffffffffffffffffffffffffffff16836040516117a591906139f4565b600060405180830381855afa9150503d80600081146117e0576040519150601f19603f3d011682016040523d82523d6000602084013e6117e5565b606091505b509150915060608215611809578180602001905181019061180691906142a0565b90505b8094505050505092915050565b60008080549050905090565b60606000825167ffffffffffffffff81111561184157611840612743565b5b60405190808252806020026020018201604052801561186f5781602001602082028036833780820191505090505b50905060005b83518110156119545760038560405161188e9190613dc0565b908152602001604051809103902060008583815181106118b1576118b06135a8565b5b602002602001015163ffffffff1663ffffffff16815260200190815260200160002060009054906101000a900473ffffffffffffffffffffffffffffffffffffffff16828281518110611907576119066135a8565b5b602002602001019073ffffffffffffffffffffffffffffffffffffffff16908173ffffffffffffffffffffffffffffffffffffffff1681525050808061194c90613637565b915050611875565b508091505092915050565b60006119696120ad565b905060008160000160089054906101000a900460ff1615905060008260000160009054906101000a900467ffffffffffffffff1690506000808267ffffffffffffffff161480156119b75750825b9050600060018367ffffffffffffffff161480156119ec575060003073ffffffffffffffffffffffffffffffffffffffff163b145b9050811580156119fa575080155b15611a31576040517ff92ee8a900000000000000000000000000000000000000000000000000000000815260040160405180910390fd5b60018560000160006101000a81548167ffffffffffffffff021916908367ffffffffffffffff1602179055508315611a815760018560000160086101000a81548160ff0219169083151502179055505b611a8a866120d5565b8315611ae65760008560000160086101000a81548160ff0219169083151502179055507fc7f505b2f371ae2175ee4913f4499e1f2633a7b5936321eed1cdaeb6115181d26001604051611add9190614338565b60405180910390a15b505050505050565b600060608060008085806020019051810190611b0a91906137e2565b809550819650829750839850849950505050505091939590929450565b60608060608084806020019051810190611b419190614353565b809450819550829650839750505050509193509193565b6000611b6683836005611e31565b905092915050565b60006060600084846008811115611b8857611b876136eb565b5b600084604051602401611b9e949392919061396c565b604051602081830303815290604052634887fcd860e01b6020820180517bffffffffffffffffffffffffffffffffffffffffffffffffffffffff8381831617835250505050905060008061040473ffffffffffffffffffffffffffffffffffffffff1683604051611c0f91906139f4565b600060405180830381855afa9150503d8060008114611c4a576040519150601f19603f3d011682016040523d82523d6000602084013e611c4f565b606091505b50915091508115611c795780806020019051810190611c6e9190613a0b565b945050505050611c82565b60009450505050505b92915050565b611c90611f27565b600073ffffffffffffffffffffffffffffffffffffffff168173ffffffffffffffffffffffffffffffffffffffff1603611d025760006040517f1e4fbdf7000000000000000000000000000000000000000000000000000000008152600401611cf991906128f6565b60405180910390fd5b611d0b81611fae565b50565b6000611d1c83836004611e31565b905092915050565b611d2c612254565b6000611d38858561171d565b90506000815111611d7e576040517f08c379a0000000000000000000000000000000000000000000000000000000008152600401611d75906136cb565b60405180910390fd5b60005b8151811015611dee57611db2828281518110611da057611d9f6135a8565b5b60200260200101516020015185611eff565b15611ddb57818181518110611dca57611dc96135a8565b5b602002602001015192505050611e2a565b8080611de690613637565b915050611d81565b506040517f08c379a0000000000000000000000000000000000000000000000000000000008152600401611e2190614476565b60405180910390fd5b9392505050565b600080611e3e858561171d565b90506000815111611e84576040517f08c379a0000000000000000000000000000000000000000000000000000000008152600401611e7b906136cb565b60405180910390fd5b60005b8151811015611ef157836008811115611ea357611ea26136eb565b5b63ffffffff16828281518110611ebc57611ebb6135a8565b5b60200260200101516000015163ffffffff1603611ede57600192505050611ef8565b8080611ee990613637565b915050611e87565b5060009150505b9392505050565b600081518351148015611f1f575081805190602001208380519060200120145b905092915050565b611f2f6120e9565b73ffffffffffffffffffffffffffffffffffffffff16611f4d6116e5565b73ffffffffffffffffffffffffffffffffffffffff1614611fac57611f706120e9565b6040517f118cdaa7000000000000000000000000000000000000000000000000000000008152600401611fa391906128f6565b60405180910390fd5b565b6000611fb8612085565b905060008160000160009054906101000a900473ffffffffffffffffffffffffffffffffffffffff169050828260000160006101000a81548173ffffffffffffffffffffffffffffffffffffffff021916908373ffffffffffffffffffffffffffffffffffffffff1602179055508273ffffffffffffffffffffffffffffffffffffffff168173ffffffffffffffffffffffffffffffffffffffff167f8be0079c531659141344cd1fd0a4f28419497f9722a3daafe3b4186f6b6457e060405160405180910390a3505050565b60007f9016d09d72d40fdae2fd8ceac6b6234c7706214fd39c1cd1e609a0528c199300905090565b60007ff0c57e16840df040f15088dc2f81fe391c3923bec73e23a9662efc9c229c6a00905090565b6120dd6120f1565b6120e681612131565b50565b600033905090565b6120f96121b7565b61212f576040517fd7e6bcf800000000000000000000000000000000000000000000000000000000815260040160405180910390fd5b565b6121396120f1565b600073ffffffffffffffffffffffffffffffffffffffff168173ffffffffffffffffffffffffffffffffffffffff16036121ab5760006040517f1e4fbdf70000000000000000000000000000000000000000000000000000000081526004016121a291906128f6565b60405180910390fd5b6121b481611fae565b50565b60006121c16120ad565b60000160089054906101000a900460ff16905090565b604051806060016040528060608152602001600063ffffffff168152602001600073ffffffffffffffffffffffffffffffffffffffff1681525090565b50805461222090613606565b6000825580601f106122325750612251565b601f01602090049060005260206000209081019061225091906122d5565b5b50565b604051806101400160405280600063ffffffff16815260200160608152602001600073ffffffffffffffffffffffffffffffffffffffff16815260200160608152602001600063ffffffff168152602001600063ffffffff168152602001606081526020016060815260200160608152602001600063ffffffff1681525090565b5b808211156122ee5760008160009055506001016122d6565b5090565b6000604051905090565b600080fd5b600080fd5b6000819050919050565b61231981612306565b811461232457600080fd5b50565b60008135905061233681612310565b92915050565b60008060408385031215612353576123526122fc565b5b600061236185828601612327565b925050602061237285828601612327565b9150509250929050565b600081519050919050565b600082825260208201905092915050565b6000819050602082019050919050565b600081519050919050565b600082825260208201905092915050565b60005b838110156123e25780820151818401526020810190506123c7565b60008484015250505050565b6000601f19601f8301169050919050565b600061240a826123a8565b61241481856123b3565b93506124248185602086016123c4565b61242d816123ee565b840191505092915050565b600063ffffffff82169050919050565b61245181612438565b82525050565b600073ffffffffffffffffffffffffffffffffffffffff82169050919050565b600061248282612457565b9050919050565b61249281612477565b82525050565b600060608301600083015184820360008601526124b582826123ff565b91505060208301516124ca6020860182612448565b5060408301516124dd6040860182612489565b508091505092915050565b60006124f48383612498565b905092915050565b6000602082019050919050565b60006125148261237c565b61251e8185612387565b93508360208202850161253085612398565b8060005b8581101561256c578484038952815161254d85826124e8565b9450612558836124fc565b925060208a01995050600181019050612534565b50829750879550505050505092915050565b600060208201905081810360008301526125988184612509565b905092915050565b6125a981612477565b81146125b457600080fd5b50565b6000813590506125c6816125a0565b92915050565b600981106125d957600080fd5b50565b6000813590506125eb816125cc565b92915050565b60008060006060848603121561260a576126096122fc565b5b6000612618868287016125b7565b9350506020612629868287016125b7565b925050604061263a868287016125dc565b9150509250925092565b600082825260208201905092915050565b6000612660826123a8565b61266a8185612644565b935061267a8185602086016123c4565b612683816123ee565b840191505092915050565b600060208201905081810360008301526126a88184612655565b905092915050565b6000602082840312156126c6576126c56122fc565b5b60006126d484828501612327565b91505092915050565b6126e681612438565b82525050565b6126f581612477565b82525050565b600060608201905081810360008301526127158186612655565b905061272460208301856126dd565b61273160408301846126ec565b949350505050565b600080fd5b600080fd5b7f4e487b7100000000000000000000000000000000000000000000000000000000600052604160045260246000fd5b61277b826123ee565b810181811067ffffffffffffffff8211171561279a57612799612743565b5b80604052505050565b60006127ad6122f2565b90506127b98282612772565b919050565b600067ffffffffffffffff8211156127d9576127d8612743565b5b6127e2826123ee565b9050602081019050919050565b82818337600083830152505050565b600061281161280c846127be565b6127a3565b90508281526020810184848401111561282d5761282c61273e565b5b6128388482856127ef565b509392505050565b600082601f83011261285557612854612739565b5b81356128658482602086016127fe565b91505092915050565b61287781612438565b811461288257600080fd5b50565b6000813590506128948161286e565b92915050565b600080604083850312156128b1576128b06122fc565b5b600083013567ffffffffffffffff8111156128cf576128ce612301565b5b6128db85828601612840565b92505060206128ec85828601612885565b9150509250929050565b600060208201905061290b60008301846126ec565b92915050565b600067ffffffffffffffff82111561292c5761292b612743565b5b602082029050602081019050919050565b600080fd5b600061295561295084612911565b6127a3565b905080838252602082019050602084028301858111156129785761297761293d565b5b835b818110156129a1578061298d88826125b7565b84526020840193505060208101905061297a565b5050509392505050565b600082601f8301126129c0576129bf612739565b5b81356129d0848260208601612942565b91505092915050565b6000806000606084860312156129f2576129f16122fc565b5b6000612a00868287016125b7565b9350506020612a11868287016125dc565b925050604084013567ffffffffffffffff811115612a3257612a31612301565b5b612a3e868287016129ab565b9150509250925092565b60008115159050919050565b612a5d81612a48565b82525050565b6000602082019050612a786000830184612a54565b92915050565b600060208284031215612a9457612a936122fc565b5b6000612aa2848285016125b7565b91505092915050565b600067ffffffffffffffff821115612ac657612ac5612743565b5b602082029050602081019050919050565b6000612aea612ae584612aab565b6127a3565b90508083825260208201905060208402830185811115612b0d57612b0c61293d565b5b835b81811015612b5457803567ffffffffffffffff811115612b3257612b31612739565b5b808601612b3f8982612840565b85526020850194505050602081019050612b0f565b5050509392505050565b600082601f830112612b7357612b72612739565b5b8135612b83848260208601612ad7565b91505092915050565b600067ffffffffffffffff821115612ba757612ba6612743565b5b602082029050602081019050919050565b6000612bcb612bc684612b8c565b6127a3565b90508083825260208201905060208402830185811115612bee57612bed61293d565b5b835b81811015612c175780612c038882612885565b845260208401935050602081019050612bf0565b5050509392505050565b600082601f830112612c3657612c35612739565b5b8135612c46848260208601612bb8565b91505092915050565b600080600060608486031215612c6857612c676122fc565b5b600084013567ffffffffffffffff811115612c8657612c85612301565b5b612c9286828701612b5e565b935050602084013567ffffffffffffffff811115612cb357612cb2612301565b5b612cbf86828701612c21565b925050604084013567ffffffffffffffff811115612ce057612cdf612301565b5b612cec868287016129ab565b9150509250925092565b60006060830160008301518482036000860152612d1382826123ff565b9150506020830151612d286020860182612448565b506040830151612d3b6040860182612489565b508091505092915050565b60006020820190508181036000830152612d608184612cf6565b905092915050565b60008060408385031215612d7f57612d7e6122fc565b5b6000612d8d858286016125b7565b9250506020612d9e858286016125b7565b9150509250929050565b600081519050919050565b600082825260208201905092915050565b6000819050602082019050919050565b600081519050919050565b600082825260208201905092915050565b6000612dfb82612dd4565b612e058185612ddf565b9350612e158185602086016123c4565b612e1e816123ee565b840191505092915050565b600061014083016000830151612e426000860182612448565b5060208301518482036020860152612e5a8282612df0565b9150506040830151612e6f6040860182612489565b5060608301518482036060860152612e8782826123ff565b9150506080830151612e9c6080860182612448565b5060a0830151612eaf60a0860182612448565b5060c083015184820360c0860152612ec78282612df0565b91505060e083015184820360e0860152612ee182826123ff565b915050610100830151848203610100860152612efd82826123ff565b915050610120830151612f14610120860182612448565b508091505092915050565b6000612f2b8383612e29565b905092915050565b6000602082019050919050565b6000612f4b82612da8565b612f558185612db3565b935083602082028501612f6785612dc4565b8060005b85811015612fa35784840389528151612f848582612f1f565b9450612f8f83612f33565b925060208a01995050600181019050612f6b565b50829750879550505050505092915050565b60006020820190508181036000830152612fcf8184612f40565b905092915050565b612fe081612306565b82525050565b6000602082019050612ffb6000830184612fd7565b92915050565b60008060408385031215613018576130176122fc565b5b600083013567ffffffffffffffff81111561303657613035612301565b5b61304285828601612840565b925050602083013567ffffffffffffffff81111561306357613062612301565b5b61306f85828601612c21565b9150509250929050565b600081519050919050565b600082825260208201905092915050565b6000819050602082019050919050565b60006130b18383612489565b60208301905092915050565b6000602082019050919050565b60006130d582613079565b6130df8185613084565b93506130ea83613095565b8060005b8381101561311b57815161310288826130a5565b975061310d836130bd565b9250506001810190506130ee565b5085935050505092915050565b6000602082019050818103600083015261314281846130ca565b905092915050565b600067ffffffffffffffff82111561316557613164612743565b5b61316e826123ee565b9050602081019050919050565b600061318e6131898461314a565b6127a3565b9050828152602081018484840111156131aa576131a961273e565b5b6131b58482856127ef565b509392505050565b600082601f8301126131d2576131d1612739565b5b81356131e284826020860161317b565b91505092915050565b600060208284031215613201576132006122fc565b5b600082013567ffffffffffffffff81111561321f5761321e612301565b5b61322b848285016131bd565b91505092915050565b600060ff82169050919050565b61324a81613234565b82525050565b600060a0820190506132656000830188613241565b81810360208301526132778187612655565b9050818103604083015261328b8186612655565b905061329a6060830185612a54565b6132a76080830184612a54565b9695505050505050565b600060808201905081810360008301526132cb8187612655565b905081810360208301526132df8186612655565b905081810360408301526132f38185612655565b905081810360608301526133078184612655565b905095945050505050565b60008060408385031215613329576133286122fc565b5b6000613337858286016125b7565b9250506020613348858286016125dc565b9150509250929050565b60008060006060848603121561336b5761336a6122fc565b5b6000613379868287016125b7565b935050602061338a868287016125b7565b925050604084013567ffffffffffffffff8111156133ab576133aa612301565b5b6133b7868287016131bd565b9150509250925092565b6000610140830160008301516133da6000860182612448565b50602083015184820360208601526133f28282612df0565b91505060408301516134076040860182612489565b506060830151848203606086015261341f82826123ff565b91505060808301516134346080860182612448565b5060a083015161344760a0860182612448565b5060c083015184820360c086015261345f8282612df0565b91505060e083015184820360e086015261347982826123ff565b91505061010083015184820361010086015261349582826123ff565b9150506101208301516134ac610120860182612448565b508091505092915050565b600060208201905081810360008301526134d181846133c1565b905092915050565b7f496e76616c69642072616e676500000000000000000000000000000000000000600082015250565b600061350f600d83612644565b915061351a826134d9565b602082019050919050565b6000602082019050818103600083015261353e81613502565b9050919050565b7f4e487b7100000000000000000000000000000000000000000000000000000000600052601160045260246000fd5b600061357f82612306565b915061358a83612306565b92508282039050818111156135a2576135a1613545565b5b92915050565b7f4e487b7100000000000000000000000000000000000000000000000000000000600052603260045260246000fd5b7f4e487b7100000000000000000000000000000000000000000000000000000000600052602260045260246000fd5b6000600282049050600182168061361e57607f821691505b602082108103613631576136306135d7565b5b50919050565b600061364282612306565b91507fffffffffffffffffffffffffffffffffffffffffffffffffffffffffffffffff820361367457613673613545565b5b600182019050919050565b7f4e6f20766572696669636174696f6e206461746120666f756e64000000000000600082015250565b60006136b5601a83612644565b91506136c08261367f565b602082019050919050565b600060208201905081810360008301526136e4816136a8565b9050919050565b7f4e487b7100000000000000000000000000000000000000000000000000000000600052602160045260246000fd5b61372381613234565b811461372e57600080fd5b50565b6000815190506137408161371a565b92915050565b6000613759613754846127be565b6127a3565b9050828152602081018484840111156137755761377461273e565b5b6137808482856123c4565b509392505050565b600082601f83011261379d5761379c612739565b5b81516137ad848260208601613746565b91505092915050565b6137bf81612a48565b81146137ca57600080fd5b50565b6000815190506137dc816137b6565b92915050565b600080600080600060a086880312156137fe576137fd6122fc565b5b600061380c88828901613731565b955050602086015167ffffffffffffffff81111561382d5761382c612301565b5b61383988828901613788565b945050604086015167ffffffffffffffff81111561385a57613859612301565b5b61386688828901613788565b9350506060613877888289016137cd565b9250506080613888888289016137cd565b9150509295509295909350565b7f566572696669636174696f6e207769746820636f756e747279206e6f7420666f60008201527f756e640000000000000000000000000000000000000000000000000000000000602082015250565b60006138f1602383612644565b91506138fc82613895565b604082019050919050565b60006020820190508181036000830152613920816138e4565b9050919050565b6000819050919050565b6000819050919050565b600061395661395161394c84613927565b613931565b612438565b9050919050565b6139668161393b565b82525050565b600060808201905061398160008301876126ec565b61398e60208301866126dd565b61399b604083018561395d565b81810360608301526139ad81846130ca565b905095945050505050565b600081905092915050565b60006139ce82612dd4565b6139d881856139b8565b93506139e88185602086016123c4565b80840191505092915050565b6000613a0082846139c3565b915081905092915050565b600060208284031215613a2157613a206122fc565b5b6000613a2f848285016137cd565b91505092915050565b7f4c656e677468206d69736d617463680000000000000000000000000000000000600082015250565b6000613a6e600f83612644565b9150613a7982613a38565b602082019050919050565b60006020820190508181036000830152613a9d81613a61565b9050919050565b7f49737375657220616c7265616479206578697374730000000000000000000000600082015250565b6000613ada601583612644565b9150613ae582613aa4565b602082019050919050565b60006020820190508181036000830152613b0981613acd565b9050919050565b60008190508160005260206000209050919050565b60006020601f8301049050919050565b600082821b905092915050565b600060088302613b727fffffffffffffffffffffffffffffffffffffffffffffffffffffffffffffffff82613b35565b613b7c8683613b35565b95508019841693508086168417925050509392505050565b6000613baf613baa613ba584612306565b613931565b612306565b9050919050565b6000819050919050565b613bc983613b94565b613bdd613bd582613bb6565b848454613b42565b825550505050565b600090565b613bf2613be5565b613bfd818484613bc0565b505050565b5b81811015613c2157613c16600082613bea565b600181019050613c03565b5050565b601f821115613c6657613c3781613b10565b613c4084613b25565b81016020851015613c4f578190505b613c63613c5b85613b25565b830182613c02565b50505b505050565b600082821c905092915050565b6000613c8960001984600802613c6b565b1980831691505092915050565b6000613ca28383613c78565b9150826002028217905092915050565b613cbb826123a8565b67ffffffffffffffff811115613cd457613cd3612743565b5b613cde8254613606565b613ce9828285613c25565b600060209050601f831160018114613d1c5760008415613d0a578287015190505b613d148582613c96565b865550613d7c565b601f198416613d2a86613b10565b60005b82811015613d5257848901518255600182019150602085019450602081019050613d2d565b86831015613d6f5784890151613d6b601f891682613c78565b8355505b6001600288020188555050505b505050505050565b600081905092915050565b6000613d9a826123a8565b613da48185613d84565b9350613db48185602086016123c4565b80840191505092915050565b6000613dcc8284613d8f565b915081905092915050565b7f49737375657220646f6573206e6f742065786973740000000000000000000000600082015250565b6000613e0d601583612644565b9150613e1882613dd7565b602082019050919050565b60006020820190508181036000830152613e3c81613e00565b9050919050565b600081549050613e5281613606565b9050919050565b818103613e67575050613f3f565b613e7082613e43565b67ffffffffffffffff811115613e8957613e88612743565b5b613e938254613606565b613e9e828285613c25565b6000601f831160018114613ecd5760008415613ebb578287015490505b613ec58582613c96565b865550613f38565b601f198416613edb87613b10565b9650613ee686613b10565b60005b82811015613f0e57848901548255600182019150600185019450602081019050613ee9565b86831015613f2b5784890154613f27601f891682613c78565b8355505b6001600288020188555050505b5050505050505b565b7f4e487b7100000000000000000000000000000000000000000000000000000000600052603160045260246000fd5b6000604082019050613f8560008301856126ec565b613f9260208301846126ec565b9392505050565b600067ffffffffffffffff821115613fb457613fb3612743565b5b602082029050602081019050919050565b600080fd5b600080fd5b600081519050613fde8161286e565b92915050565b6000613ff7613ff28461314a565b6127a3565b9050828152602081018484840111156140135761401261273e565b5b61401e8482856123c4565b509392505050565b600082601f83011261403b5761403a612739565b5b815161404b848260208601613fe4565b91505092915050565b600081519050614063816125a0565b92915050565b600061014082840312156140805761407f613fc5565b5b61408b6101406127a3565b9050600061409b84828501613fcf565b600083015250602082015167ffffffffffffffff8111156140bf576140be613fca565b5b6140cb84828501614026565b60208301525060406140df84828501614054565b604083015250606082015167ffffffffffffffff81111561410357614102613fca565b5b61410f84828501613788565b606083015250608061412384828501613fcf565b60808301525060a061413784828501613fcf565b60a08301525060c082015167ffffffffffffffff81111561415b5761415a613fca565b5b61416784828501614026565b60c08301525060e082015167ffffffffffffffff81111561418b5761418a613fca565b5b61419784828501613788565b60e08301525061010082015167ffffffffffffffff8111156141bc576141bb613fca565b5b6141c884828501613788565b610100830152506101206141de84828501613fcf565b6101208301525092915050565b60006141fe6141f984613f99565b6127a3565b905080838252602082019050602084028301858111156142215761422061293d565b5b835b8181101561426857805167ffffffffffffffff81111561424657614245612739565b5b8086016142538982614069565b85526020850194505050602081019050614223565b5050509392505050565b600082601f83011261428757614286612739565b5b81516142978482602086016141eb565b91505092915050565b6000602082840312156142b6576142b56122fc565b5b600082015167ffffffffffffffff8111156142d4576142d3612301565b5b6142e084828501614272565b91505092915050565b6000819050919050565b600067ffffffffffffffff82169050919050565b600061432261431d614318846142e9565b613931565b6142f3565b9050919050565b61433281614307565b82525050565b600060208201905061434d6000830184614329565b92915050565b6000806000806080858703121561436d5761436c6122fc565b5b600085015167ffffffffffffffff81111561438b5761438a612301565b5b61439787828801613788565b945050602085015167ffffffffffffffff8111156143b8576143b7612301565b5b6143c487828801613788565b935050604085015167ffffffffffffffff8111156143e5576143e4612301565b5b6143f187828801613788565b925050606085015167ffffffffffffffff81111561441257614411612301565b5b61441e87828801613788565b91505092959194509250565b7f566572696669636174696f6e206e6f7420666f756e6400000000000000000000600082015250565b6000614460601683612644565b915061446b8261442a565b602082019050919050565b6000602082019050818103600083015261448f81614453565b905091905056fea2646970667358221220987b47423e6ab9f916174861440fbd5a0651c263f7eb245d036340c4ec677d7e64736f6c63430008140033",
  "linkReferences": {},
  "deployedLinkReferences": {}
}